:020000040800F2
:100000000000022039150008AD140008BB140008D8
:10001000C1140008C7140008CD1400080000000037
:10002000000000000000000000000000D3140008E1
:10003000E114000800000000EF140008FD1400089F
:100040008915000889150008891500088915000818
:100050008915000889150008891500088915000808
:1000600089150008891500088915000889150008F8
:1000700089150008891500088915000889150008E8
:1000800089150008891500088915000889150008D8
:1000900089150008891500088915000889150008C8
:1000A00089150008891500088915000889150008B8
:1000B00089150008891500088915000889150008A8
:1000C00089150008891500088915000881140008A1
:1000D0008915000889150008891500088915000888
:1000E0008915000889150008891500088915000878
:1000F0008915000889150008891500088915000868
:100100008915000889150008891500088915000857
:100110008915000889150008891500088915000847
:100120008915000889150008891500088915000837
:100130008915000889150008891500088915000827
:100140008915000889150008891500088915000817
:100150008915000889150008891500088915000807
:1001600089150008891500088915000889150008F7
:10017000891500088915000889150008000000008D
:0801800089150008891500082B
:1001880010B5054C237833B9044B13B10448AFF3C9
:1001980000800123237010BD04000020000000002F
:1001A800D415000808B5034B1BB103490348AFF346
:1001B800008008BD0000000008000020D4150008D9
:1001C80081F0004102E000BF83F0004330B54FEA00
:1001D80041044FEA430594EA050F08BF90EA020F6D
:1001E8001FBF54EA000C55EA020C7FEA645C7FEA00
:1001F800655C00F0E2804FEA5454D4EB5555B8BF23
:100208006D420CDD2C4480EA020281EA030382EA93
:10021800000083EA010180EA020281EA0303362D25
:1002280088BF30BD11F0004F4FEA01314FF4801CF8
:100238004CEA113102D0404261EB410113F0004F0A
:100248004FEA03334CEA133302D0524263EB4303C1
:1002580094EA050F00F0A780A4F10104D5F1200E5F
:100268000DDB02FA0EFC22FA05F2801841F10001BA
:1002780003FA0EF2801843FA05F359410EE0A5F18E
:1002880020050EF1200E012A03FA0EFC28BF4CF0BF
:10029800020C43FA05F3C01851EBE37101F0004575
:1002A80007D54FF0000EDCF1000C7EEB00006EEB82
:1002B8000101B1F5801F1BD3B1F5001F0CD349080C
:1002C8005FEA30004FEA3C0C04F101044FEA445263
:1002D80012F5800F80F09A80BCF1004F08BF5FEAEA
:1002E800500C50F1000041EB045141EA050130BDCA
:1002F8005FEA4C0C404141EB010111F4801FA4F16D
:100308000104E9D191F0000F04BF01460020B1FAC1
:1003180081F308BF2033A3F10B03B3F120020CDAF9
:100328000C3208DD02F1140CC2F10C0201FA0CF0D7
:1003380021FA02F10CE002F11402D8BFC2F1200C3C
:1003480001FA02F120FA0CFCDCBF41EA0C019040F2
:10035800E41AA2BF01EB0451294330BD6FEA04043B
:100368001F3C1CDA0C340EDC04F11404C4F1200226
:1003780020FA04F001FA02F340EA030021FA04F338
:1003880045EA030130BDC4F10C04C4F1200220FA8F
:1003980002F001FA04F340EA0300294630BD21FACD
:1003A80004F0294630BD94F0000F83F4801306BF93
:1003B80081F480110134013D4EE77FEA645C18BF87
:1003C8007FEA655C29D094EA050F08BF90EA020F1E
:1003D80005D054EA000C04BF1946104630BD91EA16
:1003E800030F1EBF0021002030BD5FEA545C05D119
:1003F8004000494128BF41F0004130BD14F5800458
:100408003CBF01F5801130BD01F0004545F0FE41CB
:1004180041F470014FF0000030BD7FEA645C1ABF00
:10042800194610467FEA655C1CBF0B46024650EA37
:10043800013406BF52EA033591EA030F41F4002163
:1004480030BD00BF90F0000F04BF0021704730B5E9
:100458004FF4806404F132044FF000054FF00001BE
:1004680050E700BF90F0000F04BF0021704730B57F
:100478004FF4806404F1320410F0004548BF404254
:100488004FF000013EE700BF42004FEAE2014FEAA9
:1004980031014FEA02701FBF12F07F4393F07F4F84
:1004A80081F06051704792F0000F14BF93F07F4FB6
:1004B800704730B54FF4607401F0004521F00041F9
:1004C80020E700BF50EA010208BF704730B54FF07F
:1004D80000050AE050EA010208BF704730B511F084
:1004E800004502D5404261EB41014FF4806404F1BC
:1004F80032045FEA915C3FF4DCAE4FF003025FEA3E
:10050800DC0C18BF03325FEADC0C18BF033202EBC5
:10051800DC02C2F1200300FA03FC20FA02F001FA1F
:1005280003FE40EA0E0021FA02F11444C1E600BFBE
:1005380070B54FF0FF0C4CF4E06C1CEA11541DBF71
:100548001CEA135594EA0C0F95EA0C0F00F0DEF83C
:100558002C4481EA030621EA4C5123EA4C5350EA21
:10056800013518BF52EA033541F4801143F4801372
:1005780038D0A0FB02CE4FF00005E1FB02E506F003
:100588000042E0FB03E54FF00006E1FB03569CF058
:10059800000F18BF4EF0010EA4F1FF04B6F5007F5E
:1005A80064F5407404D25FEA4E0E6D4146EB0606D0
:1005B80042EAC62141EA55514FEAC52040EA5E5059
:1005C8004FEACE2EB4F1FD0C88BFBCF5E06F1ED803
:1005D800BEF1004F08BF5FEA500E50F1000041EB3A
:1005E800045170BD06F0004646EA010140EA0200E7
:1005F80081EA0301B4EB5C04C2BFD4EB0C0541EA09
:10060800045170BD41F480114FF0000E013C00F31D
:10061800AB8014F1360FDEBF002001F0004170BD41
:10062800C4F10004203C35DA0C341BDC04F114045A
:10063800C4F1200500FA05F320FA04F001FA05F2E6
:1006480040EA020001F0004221F0004110EBD370B3
:1006580021FA04F642EB06015EEA430E08BF20EADF
:10066800D37070BDC4F10C04C4F1200500FA04F382
:1006780020FA05F001FA04F240EA020001F0004114
:1006880010EBD37041F100015EEA430E08BF20EA87
:10069800D37070BDC4F1200500FA05F24EEA020ECF
:1006A80020FA04F301FA05F243EA020321FA04F0FE
:1006B80001F0004121FA04F220EA020000EBD370B5
:1006C8005EEA430E08BF20EAD37070BD94F0000FB5
:1006D8000FD101F00046400041EB010111F4801FE9
:1006E80008BF013CF7D041EA060195F0000F18BF9A
:1006F800704703F00046520043EB030313F4801FD6
:1007080008BF013DF7D043EA0603704794EA0C0F8F
:100718000CEA135518BF95EA0C0F0CD050EA4106A5
:1007280018BF52EA4306D1D181EA030101F0004122
:100738004FF0000070BD50EA410606BF104619464A
:1007480052EA430619D094EA0C0F02D150EA013656
:1007580013D195EA0C0F05D152EA03361CBF104697
:1007680019460AD181EA030101F0004141F0FE4136
:1007780041F470014FF0000070BD41F0FE4141F4BA
:10078800780170BD70B54FF0FF0C4CF4E06C1CEABA
:1007980011541DBF1CEA135594EA0C0F95EA0C0F6F
:1007A80000F0A7F8A4EB050481EA030E52EA03352A
:1007B8004FEA013100F088804FEA03334FF080554B
:1007C80045EA131343EA12634FEA022245EA111578
:1007D80045EA10654FEA00260EF000419D4208BF29
:1007E800964244F1FD0404F5407402D25B084FEAD6
:1007F8003202B61A65EB03055B084FEA32024FF482
:1008080080104FF4002CB6EB020E75EB030E22BFDE
:10081800B61A754640EA0C005B084FEA3202B6EB9E
:10082800020E75EB030E22BFB61A754640EA5C004D
:100838005B084FEA3202B6EB020E75EB030E22BFDD
:10084800B61A754640EA9C005B084FEA3202B6EBDE
:10085800020E75EB030E22BFB61A754640EADC009D
:1008680055EA060E18D04FEA051545EA16754FEAFF
:1008780006164FEAC30343EA52734FEAC2025FEA1D
:100888001C1CC0D111F4801F0BD141EA00014FF0AC
:1008980000004FF0004CB6E711F4801F04BF01437D
:1008A8000020B4F1FD0C88BFBCF5E06F3FF6AFAE99
:1008B800B5EB030C04BFB6EB020C5FEA500C50F129
:1008C800000041EB045170BD0EF0004E4EEA1131AC
:1008D80014EB5C04C2BFD4EB0C0541EA045170BDB3
:1008E80041F480114FF0000E013C90E645EA060EF7
:1008F8008DE60CEA135594EA0C0F08BF95EA0C0F25
:100908003FF43BAF94EA0C0F0AD150EA01347FF46C
:1009180034AF95EA0C0F7FF425AF104619462CE743
:1009280095EA0C0F06D152EA03353FF4FDAE1046A6
:10093800194622E750EA410618BF52EA43067FF4F7
:10094800C5AE50EA41047FF40DAF52EA43057FF487
:10095800EBAE12E74FEA4102B2F1E04324BFB3F530
:10096800001CDCF1FE5C0DD901F0004C4FEAC0021E
:100978004CEA5070B2F1004F40EB830008BF20F002
:100988000100704711F0804F21D113F13872BCBFBC
:1009980001F00040704741F480114FEA5252C2F111
:1009A8001802C2F1200C10FA0CF320FA02F018BF5A
:1009B80040F001004FEAC1234FEAD32303FA0CFCAD
:1009C80040EA0C0023FA02F34FEA4303CCE77FEA3C
:1009D800625307D150EA01331EBF4FF0FE4040F486
:1009E8004000704701F0004040F0FE4040F4000035
:1009F800704700BF80B483B000AF786039600949A0
:100A08007A683B68B2FBF3F3013B4B60054B00226D
:100A18009A60044B05221A6000BF0C37BD465DF88A
:100A2800047B704710E000E080B582B000AF7860CA
:100A38004FF47A717868FFF7DDFF00BF0837BD46CD
:100A480080BD000080B485B000AF78600E4B1B6895
:100A5800FB60FB687B68B3F1FF3F0CD07B68013318
:100A68007B6008E0084B1B6803F48033002B02D03E
:100A78007B68013B7B607B68002BF3D100BF143798
:100A8800BD465DF8047B704710E000E080B483B099
:100A980000AF7860044A7B68136000BF0C37BD461E
:100AA8005DF8047B704700BF0000002080B483B06D
:100AB80000AF0346FB80154A144B9B6943F400239F
:100AC800936102E0124AFB88D360114B9B6803F0E4
:100AD8000203002BF6D100BF0D4B9B6803F0800387
:100AE800002BF9D100BF0A4B9B6803F00103002BD0
:100AF800F9D1064A054B9B6943F00803936100BF8F
:100B08000C37BD465DF8047B704700BF00100240FB
:100B1800003001400000000090B587B000AF0346E8
:100B280087ED000AFB710B46BB801346BB71FB794E
:100B380023F07F03FB74FB7C002B20D0802B39D162
:100B4800BB88DB433B823B8A7B617B6907EE903A3B
:100B5800B8EEE77AD7ED007A67EE277AC7ED037A21
:100B6800BB7907EE903AB8EEE77AD7ED037A77EEDD
:100B7800677AFDEEE77A17EE903A7B611AE0B7F9EB
:100B880004307B617869FFF76DFC0DA3D3E900237E
:100B9800FFF7CEFC03460C4618462146FFF7DAFE5F
:100BA8000346FB60D7ED037AFDEEE77A17EE903A3D
:100BB8007B6100BF7B6918461C37BD4690BD00BFEE
:100BC800B81E85EB51B8AE3F80B483B000AF034682
:100BD800FB7197F90730002B0BDB094997F90730B0
:100BE8005B09FA7902F01F02012000FA02F241F8CB
:100BF800232000BF0C37BD465DF8047B704700BF5B
:100C080000E100E080B400AF054A054B1B6843F4DF
:100C18008033136000BFBD465DF8047B704700BF9A
:100C28000038024080B400AF074B1B6803F4003360
:100C3800B3F5003F0CBF01230023DBB21846BD46C5
:100C48005DF8047B704700BF0038024080B483B071
:100C580000AF78600649064B9B6823F003027B6867
:100C680013438B6000BF0C37BD465DF8047B7047AB
:100C78000038024080B400AF044B9B6803F00C03BB
:100C88001846BD465DF8047B704700BF0038024037
:100C980080B483B000AF78600649064B9B6823F0A8
:100CA800F0027B6813438B6000BF0C37BD465DF8CC
:100CB800047B70470038024080B483B000AF78608E
:100CC8000649064B9B6823F4E0527B6813438B600C
:100CD80000BF0C37BD465DF8047B70470038024002
:100CE80080B483B000AF78600649064B9B6823F454
:100CF80060427B6813438B6000BF0C37BD465DF8CC
:100D0800047B70470038024080B400AF054A054BA9
:100D18001B6843F08073136000BFBD465DF8047B19
:100D2800704700BF0038024080B400AF074B1B6813
:100D380003F00073B3F1007F0CBF01230023DBB283
:100D48001846BD465DF8047B704700BF0038024076
:100D580080B485B000AFF860B9607A603B600D4838
:100D68000C4B5A680C4B1340F968BA6811437A68FF
:100D780092010A43134343600649064B5B6823F418
:100D880040323B6813434B6000BF1437BD465DF8E3
:100D9800047B7047003802400080BFFF80B485B0F4
:100DA80000AF78600849084B1A6B7B6813430B63E4
:100DB800054B1A6B7B681340FB60FB6800BF143758
:100DC800BD465DF8047B70470038024080B483B0AC
:100DD80000AF78600649064B1B6823F00F027B685A
:100DE80013430B6000BF0C37BD465DF8047B7047AA
:100DF800003C024080B400AF044B1B6803F00F03B3
:100E08001846BD465DF8047B704700BF003C0240B1
:100E180080B483B000AF78607B68042B06D1094AA0
:100E2800084B1B6843F00403136005E0054A054BB3
:100E38001B6823F00403136000BF0C37BD465DF840
:100E4800047B704710E000E080B483B000AF7860A6
:100E58000649064B1B6823F480427B6813430B60EA
:100E680000BF0C37BD465DF8047B7047007000403A
:100E780080B500AF0520FFF7A9FFFFF7BBFF4FF4D0
:100E88008040FFF7E1FFFFF7BDFE00BFFFF7CAFE96
:100E98000346012BFAD10023A82204214FF4800035
:100EA800FFF756FFFFF730FF00BFFFF73DFF034690
:100EB800012BFAD10020FFF7EBFE4FF4A050FFF70B
:100EC800FBFE4FF40040FFF70BFF0220FFF7BEFECA
:100ED80000BFFFF7CFFE0346082BFAD10548FFF7FE
:100EE800A3FD0420FFF794FF0248FFF7CFFD00BFE2
:100EF80080BD00BF007A030A80B500AF8020FFF7ED
:100F08004DFF0120FFF74AFF064A064B1B6B43F0D3
:100F180008031363044A044B1B6843F0AA43136095
:100F280000BF80BD00380240000C024080B400AF12
:100F3800314A314B1B6C43F0010313642E4A2E4B8C
:100F48001B6B43F0010313632C4A2C4B1B6A43F0C1
:100F580001031362294A294B1B6A23F00203136217
:100F6800264A264B1B6A23F004031362234A234BA9
:100F78001B6A23F008031362204A204B1B6843F0C6
:100F8800020313601D4A1D4B9B6843F002039360E4
:100F98004FF0804340F2CF729A624FF0804340F2A4
:100FA8005232DA624FF080433A225A634FF080425D
:100FB8004FF080439B6943F0400393614FF08042B8
:100FC8004FF080439B6943F0200393614FF08042C8
:100FD8004FF080439B6923F0100393614FF08042E8
:100FE8004FF080431B6A43F00103136200BFBD4604
:100FF8005DF8047B704700BF0038024000000240E3
:1010080080B500AF6B4A6B4B5B6C43F48053536401
:10101800684A684B1B6B43F001031363664A664BCF
:101028001B6A43F080531362634A634B1B6A43F0A5
:1010380080431362604A604B1B6A23F000531362BB
:101048005D4A5D4B1B6A23F0004313625A4A5A4BB0
:101058001B6A43F080731362574A574B1B6A43F06D
:1010680080631362544A544B1B6A23F00073136263
:10107800514A514B1B6A23F0006313624E4A4E4B90
:101088001B6A43F4801313624B4A4B4B1B6A43F4AD
:1010980080031362484A484B1B6A23F40013136207
:1010A800454A454B1B6A23F400031362424A424BEC
:1010B8001B6843F4004313603F4A3F4B1B6843F4EB
:1010C800005313603C4A3C4BDB6843F48053D360C5
:1010D800394A394B1B6843F400631360364A364B70
:1010E8009B6843F47C439360324A324B1B6B43F05A
:1010F80010031363314A314B1B6843F040031360FC
:101108002E4A2E4BDB6843F04003D3602B4A2B4B0F
:101118009B6943F008039361294A294B1B6823F014
:1011280008031360264A264B1B6823F0100313603C
:10113800234A234B1B6843F020031360204A204BAB
:101148001B6843F0020313601D4A1D4B1B6843F0E4
:10115800010313601A4A1A4B1B6843F400631360B7
:10116800174A174B1B6823F080031360144A144B6B
:101178001B6843F400731360114A114B1B6843F456
:10118800807313600E4A0E4B5B6843F04003536054
:101198000B4A0B4B1B6843F004031360084A084BC7
:1011A8001B6843F0400313602320FFF70DFD00BFC9
:1011B80080BD00BF0038024000000240001002401D
:1011C8000030014080B400AF374A374B1B6C43F402
:1011D80000331364344A344B1B6B43F0010313632D
:1011E800324A324B1B6A43F4807313622F4A2F4BE7
:1011F8001B6A43F4007313622C4A2C4B1B6A43F49A
:1012080080631362294A294B1B6A23F40063136223
:10121800264A264B1B6A43F480531362234A234B06
:101228001B6A43F400531362204A204B1B6A43F4A1
:10123800804313621D4A1D4B1B6A23F4004313624B
:101248001A4A1A4B1B6843F020031360174A174BBE
:101258001B6843F080031360144A144BDB6843F0A7
:101268004003D360124B41F217129A60104A104B98
:10127800DB6823F48053D3600D4A0D4BDB6843F0E1
:101288000403D3600A4A0A4BDB6843F00803D360BF
:10129800074A074BDB6843F40053D36000BFBD46E1
:1012A8005DF8047B704700BF003802400000024030
:1012B8000044004080B485B000AF78607B6803F0DC
:1012C8000703FB600C4BDB68BB60BA684FF6FF0393
:1012D8001340BB60FB681A02BB68134343F0BF634B
:1012E80043F40033BB60044ABB68D36000BF1437C3
:1012F800BD465DF8047B704700ED00E080B485B022
:1013080000AF78600849084B1A6C7B6813430B647C
:10131800054B1A6C7B681340FB60FB6800BF1437F1
:10132800BD465DF8047B70470038024080B485B044
:1013380000AF78600849084B5A6C7B6813434B64CC
:10134800054B5A6C7B681340FB60FB6800BF143781
:10135800BD465DF8047B70470038024080B582B016
:1013680000AF4FF48040FFF7E1FF4FF08050FFF7E8
:10137800C5FF0320FFF79EFFFFF77AFDFFF7BCFDCF
:10138800FFF7D4FDFFF73CFEFFF71CFF4FF40F40BB
:10139800FFF78CFB324B1B783F2B1FD14FF080425D
:1013A8004FF080431B6843F0010313600A20FFF7E6
:1013B80049FB42F26700FFF779FB0A20FFF742FB7F
:1013C80042F2C830FFF772FB0A20FFF73BFB254AC1
:1013D800244B9B6943F40043936105E0214A214B68
:1013E8009B6943F4804393614FF42840FFF75EFB09
:1013F8001B4B1B781AB21C4B1A804FF42940FFF77D
:1014080055FB174B1B781B021AB2174BB3F9003068
:1014180013431AB2144B1A80114B1878124BB3F9B4
:101428000030BB229FED110A1946FFF775FB0246F3
:101438000F4B1A600E4B1B6803F596630C4A13603A
:101448000B4B1B680B4A82FB03121211DB17D31AD2
:10145800FB804FF08042FB881E335363C4E700BF14
:1014680020000020000C0240220000208FC2753DA1
:10147800240000207978787880B400AF074B9B6807
:1014880003F00103002B04D0044BDB68DAB2044BF1
:101498001A7000BFBD465DF8047B704700300140FC
:1014A8002000002080B400AF00BFBD465DF8047B7B
:1014B800704780B400AFFEE780B400AFFEE780B4A9
:1014C80000AFFEE780B400AFFEE780B400AF00BF16
:1014D800BD465DF8047B704780B400AF00BFBD46D1
:1014E8005DF8047B704780B400AF00BFBD465DF86F
:1014F800047B704780B400AF00BFBD465DF8047B35
:101508007047000080B400AF084A084BD3F8883011
:1015180043F47003C2F88830044B4FF000629A60BD
:1015280000BFBD465DF8047B704700BF00ED00E0DA
:10153800DFF834D0002103E00C4B5B5843500431F2
:101548000B480C4B42189A42F6D30B4A02E0002390
:1015580042F8043B094B9A42F9D3FFF7D3FF00F056
:1015680011F8FFF7FBFE704700000220F415000891
:1015780000000020040000200400002028000020B3
:10158800FEE7000070B50D4E0D4CA41BA4100025FD
:10159800A54209D10B4E0C4C00F018F8A41BA4105E
:1015A8000025A54205D170BD56F82530984701356C
:1015B800EEE756F8253098470135F2E7EC150008B4
:1015C800EC150008EC150008F0150008F8B500BF88
:1015D800F8BC08BC9E467047F8B500BFF8BC08BC0C
:0415E8009E46704764
:0415EC00AD01000845
:0415F0008901000865
:0415F4000024F400DB
:0400000508001539A1
:00000001FF
